:020000040800F2
:1000000058090020C9000008D1000008D3000008EA
:1000100000000000000000000000000000000000E0
:10002000000000000000000000000000D5000008F3
:100030000000000000000000D7000008991D000823
:10004000DB00000800000000DB000008DB00000807
:10005000DB000008DB000008DB000008DB00000814
:1000600000000000DB000008DB0000089D0600081F
:10007000DB000008591E0008DB000008000000003B
:10008000DB0000080000000000000000DB000008AA
:10009000DB000008DB000008DB000008DB000008D4
:1000A000DB000008DB000008DB000008DB000008C4
:1000B000DB0000080348854600F090FA004800473E
:1000C0007933000858090020044880470448004755
:1000D000FEE7FEE7FEE7FEE7FEE7FEE7FD1D0008A0
:1000E000B500000830B50B4601460020202201244F
:1000F00009E00D46D5409D4205D31D469540491B5C
:100100002546954040191546521E002DF1DC30BDA4
:1001100010B5202A04DB0846203AD040002110BD4B
:100120000B46D340D0402024A21A914008431946E0
:1001300010BDD2B201E00270401C491EFBD27047D4
:100140000022F6E710B513460A4604461946FFF7A3
:10015000F0FF204610BD421C0178401C0029FBD155
:10016000801A7047024670B54A40D30FDB07400043
:100170002DD04A002AD0010E140E000212020919D5
:10018000400A520A8418E50104465443000A120A40
:100190002E045043A4194219200CC543AA18120C6E
:1001A0000125AD03521C521912047F39240400D0DA
:1001B000521C104301D44000491EC2B20C06C009B3
:1001C0002018401C4008802A02D003E0002070BDA7
:1001D00040084000002900DA0020184370BD10B527
:1001E00000229623114600F05DF810BD0EB50549BA
:1001F0000291002100910A460B46019100F098F807
:1002000003B000BD330400004A0009030123090BB9
:100210001B051943094B10B5520D9A4201DA002013
:1002200010BD064B34339A4203DC9A1AFFF770FF75
:1002300010BD03495118884010BD0000FF030000A5
:10024000CDFBFFFFC20FD207400040080BD0C10D0D
:100250000723DB01C91840020905400A1143C208FF
:1002600040071143704700200146704710B5002930
:1002700004DB0124E40740428C412146002B04DBCF
:100280001C460123DB075242A3418B4200D182422C
:1002900010BD0000002904DA401C490001D14008CB
:1002A0004000704770B40024050C05D110240004F0
:1002B00002D1002921D01124050E01D100020834F9
:1002C000050F01D10001241D850F01D18000A41C60
:1002D000002801DB4000641C002908D020252E1BCB
:1002E0000D46F540A14000D00121294308430106F5
:1002F0001B1B000ADB1D02D5002070BC7047DB050C
:10030000181880180029F8DA401C4900F5D170BC93
:1003100040084000704710B5002B08DA0024401C4C
:10032000614192185B411A4301D14008400010BD61
:10033000F0B51FB482B005460C0003D0084601F0AA
:10034000C5FF02E001F0C2FF2030024600902146C6
:10035000284600F055F9049B059A04460F461843B9
:100360001143084314D0184610431BD00098402175
:100370000A1A18460599FFF7CBFE05460E46009A65
:100380000599049800F03CF9084305D0012004E0E9
:100390002046394607B0F0BD0020C11705430E4383
:1003A0002C43374300990E986305401A7905E40AF7
:1003B00000220C43FD0A0A3002D500200146E9E77D
:1003C0000105101969410C9C0D9D00196941FFF749
:1003D000A2FFDFE7F0B507460846584087B0C00FD8
:1003E000049048000E46590040084908BC1A88414C
:1003F00005D2384631461E4617460B46024658007F
:10040000400810434CD0300D039040055900400D7A
:10041000490D0590401A0290402872DA1803012114
:10042000000B09050843019004980092002805D0AC
:100430000199524200208841009201900298402187
:100440000A1A0199009800F0DBF805460C466B4645
:1004500007CB00F0E5F8C0197141039A0E0D002397
:10046000D71756401A467A40164344D0049A002AB9
:100470002DD0029A012A039A15DC1205C01A914167
:1004800001263605001C7141D20F059ED20700934C
:10049000019202962A462346FFF74AFF07B0F0BDB5
:1004A00038463146FAE71605224A0F46B218C01AF6
:1004B000B74101210905001C4F4100187F41114639
:1004C00018187941E20F10436D19644113E0E207F7
:1004D0006D0815436408C2071443039A01261205E8
:1004E000C01A91413605001C7141CE0740083043C7
:1004F0004908C01851412A462346FFF70CFFCDE7B3
:10050000FFE7049801224000C117121A00238B4113
:1005100004983146C417381AA141EEE730B40124DB
:10052000E407634030BC55E730B40124E407614080
:1005300030BC4FE70000E0FFF8B505464800400832
:100540000C46284304D06000184A400D904201DD5B
:100550002846F8BD15493539884210DC88420BDB46
:10056000290D200308432903014305D0E00F10495A
:10057000C00741180020F8BD00200146F8BD161A3A
:100580004020821B2846214600F03AF80746009199
:10059000284621463246FFF7BBFD3A46009BFFF74F
:1005A000BAFE324600F02CF8F8BD0000330400001B
:1005B0000000F03F10B5002904DB0124E4074042AD
:1005C0008C412146002B04DB1C460123DB075242F1
:1005D000A341994200D1904210BD0000064C012574
:1005E000064E05E0E36807CC2B430C3C98471034DB
:1005F000B442F7D3FFF762FD9C550008BC550008D4
:1006000010B5202A04DB0146203A9140002010BD9D
:10061000914020239C1A0346E3401943904010BDAB
:1006200010B5202A06DBCB170846203A1041C11727
:100630000B4306E00B461341D0402024A21A914000
:100640000843194610BD70B58C180578401C6B071F
:100650005B0F01D10378401C2A1106D10278401C9F
:1006600003E006780E70401C491C5B1EF9D12B0775
:1006700005D40023521E0DD40B70491CFAE70378F1
:10068000401CCB1A921C03E01D780D70491C5B1CAA
:10069000521EF9D5A142D8D3002070BD10B5024832
:1006A00000F08CF810BD00002C02002010B404688B
:1006B00063604368102B05D0036899600068C260CE
:1006C00010BC704703689A600068C16010BC704736
:1006D00006490020C86106480169042211430161EE
:1006E0000169402211430161704700003803002076
:1006F00000200240064A0021D16106490A6902230E
:100700001A430A6148610869402210430861704732
:10071000380300200020024010B4054B0022DA61AB
:10072000044A1369012423431361018010BC7047FC
:1007300038030020002002400949C868C206094861
:1007400003D5C26902231A43C261CA68520703D59E
:10075000C26901231A43C2611420C86070470000B7
:10076000002002403803002070B5044600F0DCFA97
:100770000546114EF068C0070DD0601C08D0002C53
:1007800004D000F0D1FA401BA04201D9032070BD73
:10079000F068C007F1D1F068800601D52020F06034
:1007A000F068C00602D4F068400703D5FFF7C4FF25
:1007B000012070BD002070BD00200240F8B5044645
:1007C0006E4802686E4901232068DB036D4E6E4F50
:1007D000884201D108210FE0B04201D180210BE015
:1007E000B84202D10121C90206E06849884201D11C
:1007F000194601E00121C90425460A402035002A96
:100800002CD00168C943090728D401680822914304
:1008100001605B492068884201D108200FE0B042A6
:1008200001D180200BE0B84202D10120C00206E0D5
:100830005649884201D1184601E00120C0044F49C1
:100840004860606B012108436063042068700020E9
:100850002870216B002901D020468847474802684C
:10086000474920680B15884201D104210FE0B042AE
:1008700001D140210BE0B84201D1194607E04349BC
:10088000884202D10121890301E0012189040A4241
:1008900029D00168C943490725D40168890603D4D2
:1008A000026804218A43026035492068884201D1E8
:1008B00004200FE0B04201D140200BE0B84201D14A
:1008C000184607E03149884202D10120800301E047
:1008D000012080042949486011206870E16A0029DC
:1008E00001D02046884725480268254B2068984259
:1008F00001D1022110E0B04201D120210CE0B84228
:1009000002D10121490207E02049884202D1012198
:10091000490301E0012149040A422DD00168C9437D
:10092000890729D40168890603D40168022291430A
:1009300001602068984201D1022010E0B04201D14C
:1009400020200CE0B84202D10120400207E00F490C
:10095000884202D10120400301E001204004074900
:100960004860606B60630120687000202870A16A95
:10097000002901D020468847F8BD00000000024051
:10098000080002401C0002403000024044000240C7
:10099000F0B4002806D0014620314A780025002A0C
:1009A00003D003E0F0BC012070470D7002224A70B2
:1009B000026814680B4B1C40866843680769334320
:1009C000C6683E4333434669334386693343C66949
:1009D000334323431360456301204870F0BC00207B
:1009E000704700000FC0FFFFF8B5044620462030D6
:1009F0000578012D1ED0012505700226467020685D
:100A00000768AF4307602046FFF750FE2068016883
:100A100031430160206801680422114301602068AD
:100A200001680822114301602068016829430160C0
:100A30000020F8BD0220F8BD31B500F075F904467C
:100A400000F072F90099001B8842F9D338BD00000C
:100A5000F8B505460F4601262448017E01290BD032
:100A6000012101762868224C012807D02046FFF793
:100A70007BFE002813D034E00220F8BD2046FFF7AB
:100A800073FE00282DD1FFF723FE2046FFF76CFEF2
:100A900006461849086904229043086121E00020B5
:100AA000C04338606C68A86880022018A04218D93A
:100AB0002046FFF71FFE0E48FFF756FE06460D487C
:100AC0000169022291430161300001D03C6008E0DD
:100AD000012080022418A968686889024018A04291
:100AE000E6D80248002101763046F8BD38030020E0
:100AF00050C30000002002400348016980221143D6
:100B0000016100207047000000200240F0B51FB4D2
:100B1000074615461E4600241C48017E012907D0C1
:100B2000012101761A48FFF71FFE002803D027E0B5
:100B3000022005B0F0BD012F1AD0022F1AD00427D1
:100B4000002F1DD9220128463146FFF7E1FA81B274
:100B5000019862001018FFF7DFFD0D48FFF704FE53
:100B60000C490A69520852000A61002808D103E0C2
:100B70000127E5E70227E3E7641CE4B2BC42E1D3C6
:100B8000024900220A7605B0F0BD000038030020BB
:100B900050C300000020024005480169090605D540
:100BA00004494160044941600020704701207047BA
:100BB0000020024023016745AB89EFCDF8B4002245
:100BC0000B68002B7ED0012494400B68A446234080
:100BD000002B78D04C68022C01D0122C0CD1D408F8
:100BE000A40025182C6A5607F60E0F27B740BC4301
:100BF0000F69B74027432F62076855000324AC40B4
:100C0000A7430E79B607B60FAE403E4306604E6866
:100C1000012E05D0022E03D0112E01D0122E0ED19E
:100C20008768A743CE68AE403E4386604768664605
:100C3000B7430E79F606F60F96403E434660C66807
:100C4000A6438C68AC403443C4604C68E4004AD589
:100C5000284CA56901263543A561A4693440009458
:100C60009508254CAD002F19BD689407240F0F2659
:100C7000A640B5430926F606B04201D100260FE092
:100C80001E4EB04201D101260AE01D4EB04201D1F4
:100C9000022605E01B4EB04201D1032600E00526E6
:100CA000A6402E43BE60184D2C689C434E68F60348
:100CB00000D51C432C606C689C434E68B60300D57D
:100CC0001C4301E014E00EE06C60AC689C434E688D
:100CD000F60200D51C43AC60EC689C434E68B6023B
:100CE00000D51C43EC60521C0B68D34000D06AE76F
:100CF000F8BC7047001002400000014000040048AA
:100D000000080048000C0048000401400069084247
:100D100001D00120704700207047002A01D0816176
:100D2000704781627047000001480068704700000A
:100D3000B001002002480168491C016070470000B2
:100D4000B001002010B5064801681022114301606F
:100D5000002000F007F800F017F8002010BD000098
:100D60000020024010B5044600F05AF97D21C90068
:100D7000FFF7B8F900F01EFC00222146501E00F0DB
:100D80001FF8002010BD000008B507488169012246
:100D90001143816180691040009000221146501E6D
:100DA00000F00EF808BD000000100240C106C90E98
:100DB00001208840014908607047000000E100E020
:100DC0008207D30EFF229A408907090E9940002816
:100DD0000BDA0007000F0838830808489B00181832
:100DE000C36993430B43C3617047830804489B0066
:100DF0001818036893430B430360704700ED00E04D
:100E000000E400E0BFF34F8F04490348C860BFF31C
:100E10004F8F00BFFDE700000400FA0500ED00E081
:100E2000F8B504460F467B480068F022C007C00FA3
:100E3000794EB84270D27748016849084900394371
:100E400001600068C007C00FB84201D00120F8BDA2
:100E50002078800704D57068A168904308437060CB
:100E60002078C00751D06068012806D0022809D038
:100E7000316889070BD40120F8BD3168890306D495
:100E80000120F8BD3168890101D40120F8BD7168E5
:100E90008908890001437160FFF746FF05466068D5
:100EA00001280DD002281ED070680007800F2CD0BA
:100EB0005A4FFFF739FF401BB84227D90320F8BD2E
:100EC00070680007800F01281FD0544FFFF72CFFD8
:100ED000401BB84201D90320F8BD70680007800F9D
:100EE0000128F3D187E070680007800F02280CD03A
:100EF0004A4FFFF719FF401BB84201D90320F8BD44
:100F000070680007800F0228F3D174E07068000752
:100F1000800FCED16FE0FFE72078800704D570689E
:100F2000A1689043084370602078C00756D060687D
:100F3000012806D0022809D0316889070BD4012086
:100F4000F8BD3168890306D40120F8BD31688901F4
:100F500001D40120F8BD71688908890001437160DE
:100F6000FFF7E2FE0546606801280DD002281ED07A
:100F700070680007800F31D0FFF7D6FE411B27486D
:100F8000814227D90320F8BD70680007800F01282F
:100F900024D0FFF7C9FE411B2048814201D903201C
:100FA000F8BD70680007800F0128F2D116E0706864
:100FB0000007800F022811D0FFF7B6FE411B17482B
:100FC000814201D90320F8BD70680007800F022814
:100FD000F2D103E070680007800FCDD10D480168A1
:100FE00049084900394301600068C007C00FB84292
:100FF00001D00120F8BD2078400706D57068072190
:1010000009028843E168084370600020FFF7AAFEE8
:101010000020F8BD002002400010024088130000AC
:1010200010B500F021F805494968054A0906090F7D
:10103000515CC8400349086010BD00000010024028
:10104000895500089C01002010B5FFF7E9FF04490D
:101050004968044A4905490F515CC84010BD000069
:10106000001002408955000810B588B018A04368E8
:1010700082680168C068059306920491079018A0E1
:10108000836842680168C0680293019200910390EE
:10109000174B5A680C2011460140164804290FD0FE
:1010A00008290DD19102090F04AC645CD96A6B4622
:1010B0000907090F595CD20304D5FFF713F8604301
:1010C00008B010BD0C492046484308B010BD0000D0
:1010D00002030405060708090A0B0C0D0E0F101079
:1010E0000102030405060708090A0B0C0D0E0F1078
:1010F0000010024000127A0000093D00F0B583B0F4
:1011000004462078FE4EFF4DC0077BD0686800077C
:10111000800F012807D068680007800F02280BD1D4
:101120006868C00308D5286880036BD5606800280C
:1011300068D1012003B0F0BD286801273F04B843FF
:1011400028602868B90088432860FFF7EDFD029009
:10115000286880030BD5FFF7E7FD0299401AB042DB
:1011600002D9032003B0F0BD28688003F3D460687F
:1011700001281CD000281ED0052825D02868B84397
:101180002860296801208004814329606068002864
:1011900027D0FFF7C9FD07462868800332D4FFF740
:1011A000C3FDC01BB04218D9032003B0F0BD2868AE
:1011B00038432860EAE72868B84328602968012096
:1011C000800481432960E1E72868012189040843FC
:1011D0002860286838432860D8E728688003DED56F
:1011E00010E0FFF7A1FD0746286880030AD5FFF746
:1011F0009BFDC01BB04202D9032003B0F0BD28689C
:101200008003F4D4207801278007002852DA686828
:101210000007800F07D068680007800F022813D1ED
:101220006868C00310D42868800705D5E0680128E5
:1012300002D0012003B0F0BD2868F821884321695D
:10124000C9000843286035E0E06800281CD0286801
:1012500038432860FFF768FD0290286880070BD4A8
:10126000FFF762FD0299401A642802D9032003B0F7
:10127000F0BD28688007F3D52868F82188432169E4
:10128000C9000843286015E028684008400028602D
:10129000FFF74AFD0290286880070BD5FFF744FD51
:1012A0000299401A642802D9032003B0F0BD2868CF
:1012B0008007F3D4207800072ED5206A002815D0A7
:1012C000686A38436862FFF72FFD0290686A8007FA
:1012D00022D4FFF729FD0299401A642802D903207D
:1012E00003B0F0BD686A8007F3D515E0686A40086E
:1012F00040006862FFF718FD0290686A80070BD50E
:10130000FFF712FD0299401A642802D9032003B0A6
:10131000F0BD686A8007F3D42078400771D5E8698A
:10132000012109070843E861E8690840019076480F
:1013300000680915084374490860FFF7F5FC02903E
:1013400071480068C0050CD4FFF7EEFC0299401A02
:10135000642802D9032003B0F0BD6B480068C005C3
:10136000F2D5286A400840002862296A0420814397
:101370002962FFF7D9FC0290286A80070BD5FFF796
:10138000D3FC0299401AB04202D9032003B0F0BD49
:10139000286A8007F3D4A06801281DD000281FD038
:1013A000052826D0286A400840002862296A0420BF
:1013B00081432962A068002828D0FFF7B5FC02907D
:1013C000286A800734D4FFF7AFFC0299401AB04274
:1013D00018D9032003B0F0BD286A38432862E9E732
:1013E000286A400840002862296A04208143296253
:1013F000E0E7286A042108432862286A3843286203
:10140000D8E715E0286A8007DDD511E0FFF78CFCEE
:101410000290286A80070BD5FFF786FC0299401AD4
:10142000B04202D9032003B0F0BD286A8007F3D48C
:101430002078C00649D56069012817D0401D35D0F5
:10144000686B042108436863686B40084000686368
:10145000FFF76AFC0646686B800736D5FFF764FC29
:10146000801B64282ED9032003B0F0BD686B0421D3
:1014700008436863686B38436863FFF755FC0646AA
:10148000686B80070AD4FFF74FFC801B642802D9E1
:10149000032003B0F0BD686B8007F4D5686BF821BA
:1014A0008843A169C900084368630EE0686B0421A2
:1014B00088436863686BF8218843A169C9000843C1
:1014C000686302E0686B8007C8D4606A00285BD05C
:1014D00069680907890F022959D0012636060228B2
:1014E00017D02868B0432860FFF71EFC0446286820
:1014F000800149D5FFF718FC001B642841D905E09D
:10150000881300000010024000700040032003B068
:10151000F0BD2868B0432860FFF706FC074628683E
:1015200080010AD5FFF700FCC01B642802D9032004
:1015300003B0F0BD28688001F4D4E86A216B00098B
:1015400000010843E862A16AE06A084369683D2235
:101550001204914308436860286830432860FFF70D
:10156000E3FB0446286880010ED4FFF7DDFB001B77
:10157000642802D9032003B0F0BD28688001F4D5A7
:1015800002E028688001B5D4002003B0F0BD01203E
:1015900003B0F0BD04220549042803D00869904334
:1015A00008617047086910430861704700E000E077
:1015B0007047000010B40B49401E884202D910BC8D
:1015C000012070470849486108480723C269120290
:1015D000120A4C042243C261002088610B6110BCD6
:1015E00070470000FFFFFF0000E000E004ED00E0B6
:1015F00010B5FFF7DDFF10BD7047704770B40246AD
:101600002032137E012B1CD0012414760223537642
:1016100003685D687026B5435D6003685D680E68A9
:1016200035435D6003689D688026B5439D60006812
:10163000836849680B43836054760020107670BC41
:10164000704770BC0220704770B50446002C05D06E
:1016500025462035687E002802D006E0012070BDB6
:1016600000202876204600F00BF802206876211D25
:10167000206800F0F9FB01206876002070BD0000B2
:1016800008B500680D49884217D10D488269C11418
:101690000A438261806908400090002211460D20B3
:1016A000FFF78EFB0D20FFF781FB002211460D2076
:1016B000FFF786FB0D20FFF779FB08BD002C0140EA
:1016C000001002400168CA6801231A43CA6000681A
:1016D00001681943016000207047F8B504462546AB
:1016E0002035287E012817D001272F760220687622
:1016F000206882687726B243FF231B029A438260E8
:101700000868502838D00EDC20285DD006DC002880
:1017100050D0102861D152E00220F8BD302858D0B6
:1017200040285AD13CE0602830D0702818D00122DF
:101730001203801A0ED090424FD1CB684A68896854
:10174000206800F0D1FB20688168012292031143D8
:10175000816042E020688168C908C90081603CE07E
:10176000CB684A688968206800F0BEFB2068816801
:10177000B1433143816030E0CA684968206800F0B5
:10178000C7FB5021206800F0BBFB26E0CA6849680F
:10179000206800F0CFFB6021206800F0B1FB1CE066
:1017A000CA684968206800F0B3FB4021206800F057
:1017B000A7FB12E00021206800F0A2FB0DE0102141
:1017C000206800F09DFB08E02021206800F098FBD5
:1017D00003E03021206800F093FB6F76002028762C
:1017E000F8BD704770B50446206801690025C943FB
:1017F0008907002916DBC168C943890712D4E91E8D
:1018000001610120207620688069800703D020468E
:10181000FFF7E7FF05E0204600F099F8204600F0CA
:1018200097F8257620680169C943490718D4C1682B
:10183000C943490714D40421C94301610220207619
:10184000206880698005800F03D02046FFF7C9FF1C
:1018500005E0204600F07BF8204600F079F8257678
:1018600020680169C943090717D4C168C94309073A
:1018700013D40821C9430161042020762068C0697F
:10188000800703D02046FFF7ACFF05E0204600F0BC
:101890005EF8204600F05CF8257620680169C943AF
:1018A000C90618D4C168C943C90614D41021C94354
:1018B0000161082020762068C0698005800F03D070
:1018C0002046FFF78EFF05E0204600F040F8204656
:1018D00000F03EF8257620680169C943C90708D1A0
:1018E000C168C943C90704D1891E0161204600F0BF
:1018F00031F820680169C943090609D4C168C943A0
:10190000090605D48021C94301612046FFF774FE12
:1019100020680169C943490609D4C168C943490619
:1019200005D44021C9430161204600F027F8206812
:101930000169C943890609D4C168C943890605D428
:101940002021C94301612046FFF757FE70BD704753
:101950007047000010B508498A6890420BD108789A
:10196000002808D04868401C4860012349681A468E
:10197000E62002F005F810BD3C00002070477047DB
:1019800070B50446002C05D025466035687A0028DD
:1019900002D006E0012070BD00202872204600F031
:1019A00029F802206872206801684908490001602E
:1019B000204600F073FB012819D0606A002802D08D
:1019C000204600F0CBFA206841680922D2029143F8
:1019D0004160206881682A22914381602068016803
:1019E000012211430160204600F01EFB70BD012062
:1019F00070BD000030B587B0054618492868884298
:101A000029D11748C269012149040A43C261C0694A
:101A1000084001900C2002900220039001200490C5
:101A2000032105910690092002A9C006FFF7C6F818
:101A30000D4C0C48206000206060A0608021E160B7
:101A4000206160612020A061C001E0612046FEF7B6
:101A50009FFF6C66656207B030BD00000044004027
:101A600000100240580002402C020020F7B5044646
:101A7000134625466035687A012805D0687A122811
:101A800002D0022003B0F0BD019A002A27D0002B1B
:101A900025D0287A012825D0012028726265582097
:101AA00003530026E666687A12281ED02220687248
:101AB000616E0F488862616E0E48C862616E0E48A2
:101AC00008632168606E2431FEF78EFF206881680C
:101AD0004022114381602E72002003B0F0BD01202E
:101AE00003B0F0BD022003B0F0BD32206872DFE722
:101AF0005B200008932000083920000870477047D9
:101B0000FFB581B005460C462E466036707A012836
:101B100005D0707A222802D0022005B0F0BD002C3A
:101B20001FD0002A1DD0307A01281DD0012030722C
:101B30000020E866707A222819D0122070722F4691
:101B400040373A827A82788A401E78820022802149
:101B50002846049B00F04CFB00280BD0032005B066
:101B6000F0BD012005B0F0BD022005B0F0BD32206F
:101B70007072E4E70120A9680003814202D128695C
:101B8000002811D0296820780885641C788A0028EC
:101B9000D9D1002240212846049B00F029FB0028CF
:101BA00009D0032005B0F0BD20882968C005C00D0C
:101BB0000885A41CEAE7707A322805D001207072EB
:101BC0000020307205B0F0BD22207072F8E710B529
:101BD0000446002C03D0607C002802D006E00120DF
:101BE00010BD00202074204600F016F8022060741A
:101BF0006168A068014320684268520A520211439A
:101C0000416020680168E268C909C90111430160A7
:101C100001206074002010BD81B000680649884230
:101C200007D10648C269C1140A43C261C0690840AD
:101C3000009001B070470000002C004000100240EE
:101C400008B50848416901221143416140691040CB
:101C50000090002201210B20FFF7B2F80B20FFF7C4
:101C6000A5F808BD0010024030B587B01F48426992
:101C7000012149040A43426142690A4001924269D2
:101C800049000A43426142690A40019242690901DE
:101C90000A434261406908400190154802900125BD
:101CA0000395002404940594092002A9C006FEF7B8
:101CB00085FF1048029003950494059402A90E48EC
:101CC000FEF77CFF402002900395049405940B4D91
:101CD00002A92846FEF772FF802002900394049424
:101CE00002A92846FEF76AFF07B030BD0010024087
:101CF000029D0000FFFF000000040048001400489F
:101D000010B586B00E480D4901602F2141600024B6
:101D100084606321C16004614461FFF795FC012088
:101D20000003029002A90648FFF7D7FC0094019433
:101D300069460348FFF762FC06B010BD002C014065
:101D4000E402002010B50A4808490160E121490277
:101D5000416000218160C16001610C2242618161AA
:101D6000C16101624162FFF70BFE10BD00440040FB
:101D7000BC01002010B5074805490160FF218131F1
:101D800041607F2181607E21C160FFF720FF10BD8F
:101D9000002C00402003002010B5FEF7CBFFFFF71A
:101DA00027FC10BD70B592B0022504950126079658
:101DB000102008900D9500240E940520C0040F906B
:101DC000109404A8FFF79AF90096019502940394E1
:101DD00001216846FFF724F8FFF722F97D21C900A9
:101DE000FEF780F9FFF7E6FB0420FFF7D3FB0022A4
:101DF0001146501EFEF7E4FF12B070BD1348016893
:101E00000122114301604168114A1140416001689B
:101E1000104A11400160016801229204914301605F
:101E200041683F22120491434160C16A09090901D6
:101E3000C162016BFF22143291430163416B490877
:101E4000490041630021816070470000001002409A
:101E50000CB8FF08FFFFF6FE10B50248FFF7C2FC02
:101E600010BD0000E4020020F0B40268184B194CC9
:101E7000984201D0A04203D17025AA434D682A435D
:101E8000154D164E164F98420AD0A04208D0154C58
:101E9000A04205D0A84203D0B04201D0B84204D13C
:101EA00003242402A243CC68224302608A68C262EF
:101EB0000A688262984205D0A84203D0B04201D09D
:101EC000B84201D10969016301214161F0BC704749
:101ED000002C01400004004000400140004401404B
:101EE000004801400020004030B48468FF252D02E6
:101EF000AC431B0213430B432343836030BC704746
:101F0000826870239A430A4307210A43826070471C
:101F100030B4036A046A6408640004628469F025CA
:101F2000AC43120122430A24A3430B4382610362A0
:101F300030BC704730B4036A1024A3430362836942
:101F4000046A0F252D03AB4312031A43A0239C43BD
:101F5000090121438261016230BC704710B4818C59
:101F6000C90707D001684A6801235B049A43836A62
:101F70001A434A60818C890707D501684A680123A2
:101F80001B049A43C36A1A434A60818C490707D5E8
:101F900001684A6801239B049A43036B1A434A6011
:101FA000818C090707D501684A680123DB039A433E
:101FB000436B1A434A60818CC90607D501688A6859
:101FC00001231B039A43836B1A438A60818C890621
:101FD00007D501688A6801235B039A43C36B1A43E0
:101FE0008A60818C490612D501684B68012212056E
:101FF000046C934323434B60016C914207D1016809
:102000004A6803235B059A43436C1A434A60818CF8
:10201000090607D501684A680123DB04806C9A43EE
:1020200002434A6010BC70470021C1660122603043
:10203000427201720020704710B5406A00220146CA
:1020400040314A834A82012269210A54C16E10221A
:102050001143C166FFF793FC10BD10B50146486AF5
:102060000968096889060ED400225A210A520168BB
:102070008A6840239A438A60014660314A7A322A4C
:1020800004D001224A72FFF739FD10BD12224A72B4
:10209000F9E710B5406AFFF732FD10BDF8B5044608
:1020A000102000210026A3682269E56913436269B4
:1020B0002A43134322681568474F3D401D4315606E
:1020C0002268536803252D03AB43E5682B43536017
:1020D000A369226A1343226895680B273F02BD4318
:1020E0001D4395603D4A2568954213D13C4A126BC9
:1020F0009207920F06D0012A08D0022A08D0032A9C
:102100000CD101E0002009E0022007E0042005E0F6
:10211000082003E0334A954200D100200122E36900
:10212000D20393422DD100280ED0022814D00428C7
:1021300018D008281ED001260A0912010807400FEE
:1021400010432168C86025E0FEF77EFF400061680B
:10215000FDF7C8FF81B2EFE723486168FDF7C2FFD2
:1021600081B2E9E7FEF780FF40006168FDF7BAFF42
:1021700081B2E1E7012000046168FDF7B3FF81B29D
:10218000DAE7002808D002280FD0042814D0082845
:102190001BD001263046F8BDFEF756FF6168FDF7FB
:1021A000A1FF216880B2C860F4E710486168FDF7BC
:1021B00099FF80B2E860EDE7FEF756FF6168FDF732
:1021C00091FF216880B2C860E4E710466168FDF7BE
:1021D00089FFE860DEE70000F369FFFF0038014097
:1021E00000100240004400400024F40000127A0075
:1021F000F8B504460E4617461D46FEF795FD0090BD
:10220000394627466037002905D02068C169304625
:1022100088432FD058E02068C1693046884353D0A6
:10222000681C21D0002D05D0FEF77EFD0099401AD4
:10223000A84219D920680168802291430160206872
:10224000016820229143016020680168D200914317
:102250000160206881684908490081600120787226
:10226000002038720320F8BD2068C16930468843D9
:10227000D6D129E0681C22D0002D05D0FEF754FDF0
:102280000099401AA8421AD92068026880218A431E
:1022900002602068026820218A4302602068016889
:1022A000FF2201329143016020688168490849009A
:1022B000816001207872002038720320F8BD206808
:1022C000C16930468843D5D00020F8BD2021020CDA
:1022D00001D010211046020A01D010460839020927
:1022E00001D01046091F820801D01046891E4208FD
:1022F00001D0881E7047081A704702E008C8121FF4
:1023000008C1002AFAD170477047002001E001C1DE
:10231000121F002AFBD17047F8B504460D46164639
:102320001F462946204600F0C5FA002803D029465A
:10233000204600F0E9F80C2001F0A8F8466004807F
:102340008770C57002494A6882604860F8BD000025
:102350002000002010B500F087FA002802D00249C2
:102360008968C16110BD000020000020F8B50F464B
:10237000144600F079FA00280BD04D4E4D4D062F33
:1023800072D239007944097949188F448F04163C78
:10239000566E0020F8BD83690269D11AA94263D242
:1023A000454F0B39B9425FD8002C03D1C069181AC8
:1023B000A8427BD2B068801AF8BD4269C1688A1A07
:1023C00087697B1A01698C46C91BAA426ED2AB424F
:1023D0006CD2384DA94269D2374D0B3AAA4265D822
:1023E000C82B63D80A2961D94B22D20091425DD80B
:1023F000002C04D1C069391A2E48814256D2B168E6
:102400006046081AF8BD83690169CA1A284EB66881
:10241000761AAA424AD2AE4248D2274F0B3ABA4263
:1024200044D8C82E42D9002C03D1C069181AA8423A
:102430003CD21F488068401AF8BD82690169531A6E
:10244000B168891A1D4E5B1EB3422FD2A9422DD20C
:102450004B23DB00994229D9002C03D1C069101A03
:10246000A84223D2081FF8BD20E0426901698A1AF8
:102470008369591AB668F61AAA4217D2002915D0EC
:10248000A94213D2AE4211D20B4F0B3ABA420DD829
:10249000C8290BD84B21C9008E4207D9002C03D183
:1024A000C069181AA84201D2301FF8BD0020F8BD3B
:1024B00020000020FFFFFF7F4D020000FEFFFF7F96
:1024C000F8B507460E46384600F0CEF9002817D179
:1024D000242000F0DBFF044627800A4DA868401C3A
:1024E000E061A868E060A8682061A8686061A868E9
:1024F000A06166603846B0472072286820622C6070
:10250000F8BD000020000020F8B505460E4600206A
:102510000C4F7C68002C13D02188A9420CD1E178A3
:10252000B14209D1002802D0A168816001E0A06811
:102530007860204600F06EF92046A468002CEBD1AC
:10254000F8BD00002000002010B50B484468002CA6
:1025500011D0A07800280BD1E17820880022FFF765
:1025600005FF002804D02088FFF7F4FE606880474C
:10257000A468002CEDD110BD2000002070B5104DD6
:10258000A868401CA8602C68002C18D061682088BE
:102590008847002806D0217A002903D1A16961610A
:1025A000A968A161002806D1217A002903D02169F8
:1025B000E160A96821612072246A002CE6D170BD17
:1025C0002000002010B50448002301681A465C2052
:1025D00001F0D6F910BD00002C00002038B50446EB
:1025E00080222046FFF742FA00900148446038BD3F
:1025F0000000002010B504462046FDF7ACFD82B275
:1026000003480A2321464068FFF77AFA10BD00000C
:1026100000000020F8B500260020484F4106490E72
:10262000795C5A297BD1411C4906490E795CA52960
:1026300075D1811C4906490E795C34296FD1C11CC2
:102640004906490E795C002969D100238A001218D5
:102650005406640E3C5DE318541C6406640E3C5D35
:10266000E318921C5206520EBA5C1202D21893B2B0
:10267000491CC9B20E29E9D301463A314906490E2F
:10268000795C0A0201463B314906490E795C5118D2
:10269000994244D1012605460835002200216B18D5
:1026A0005B065B0EFB5CCC00A3401A43491CC9B21D
:1026B0000429F4D322498A600546103500220021FE
:1026C0006B185B065B0EFB5CCC00A3401A43491CF5
:1026D000C9B20429F4D31A49CA6005461435002248
:1026E00000216B185B065B0EFB5CCC00A3401A4319
:1026F000491CC9B20429F4D3114C226118300022BC
:10270000002143185B065B0EFB5CCD00AB401A4317
:10271000491CC9B20429F4D3626105E0FFE7401CFB
:10272000C0B2802800D279E7002E02D105A0FFF7C1
:1027300061FF08A0FFF75EFFF8BD00006402002003
:102740000000002041542B6F757474797065663DEC
:10275000340D0A0041542B66636F0D0A000000001F
:1027600070B506460C4615466069804761680129C8
:102770000FD0002901D0491E6160A0684019206176
:10278000304600F0A9F8002802D0E16849194160FC
:1027900070BD3046616901F0D5F870BD012280023C
:1027A000D206831802480360890289184160704785
:1027B0003000002038B5044600F066F80022D2430D
:1027C00000926A46214600F0B7FF009838BD00002D
:1027D000F8B506460F46FEF7DFF900F055F8054656
:1027E0003A463146284601F017F900280DD108482D
:1027F0000468A54200D144682846214600F0B1FF94
:102800003A463146204601F007F9FEF775F9F8BD62
:102810003000002010B5002823D0124B0022001FEA
:10282000196803E0814203D80A4649680029F9D1B2
:10283000002A0AD01368841A9C4204D10068181830
:102840001060104602E0506000E01860002907D0D8
:1028500002680B1A934203D10B68D21802604968D0
:10286000416010BDB4010020014606480068002800
:1028700005D002888A4203D0006A0028F9D10020DE
:102880007047000020000020034908680268521CBD
:1028900000D1486870470000300000200146082041
:1028A000C3010A58521C04D0083080B29842F8D3B1
:1028B00018467047024607484068002808D0038839
:1028C000934202D1C3788B4203D080680028F6D1AE
:1028D00000207047200000200146064800680028BC
:1028E00005D002888A4203D0C0680028F9D10020B0
:1028F000704700003800002010B5FFF7B5F9FFF76A
:102900009FF9FFF7FDF9FFF71DFA1548FEF740F8AC
:102910006420FEF791F813491348FFF75FFE09247E
:10292000E406012202212046FEF7F7F93220FEF7E5
:1029300083F800F093F80D49487800F02BF8322026
:10294000FEF77AF80122D1032046FEF7E6F932209D
:10295000FEF772F803490448FFF740FE10BD00007F
:102960002C02002064020020BC0100200000002096
:1029700010B5012801D0002010BD80210448FEF7C9
:10298000C5F9002801D0002010BD012010BD0000B5
:102990000014004800B583B009494A6B096B0192E5
:1029A0000091C00705D0F02069468880FF204130A3
:1029B000C8800021684600F005F803B000BD0000A3
:1029C000243D0008F3B581B0044667886088E1883B
:1029D000401880B2009025882088A188401886B2CF
:1029E0002A2000F07BFC280A00F09AFC284600F020
:1029F00097FC300A00F094FC304600F091FC2B204C
:102A000000F06CFC380A00F08BFC384600F088FCC3
:102A10000098000A00F084FC009800F081FC2C2053
:102A200000F05CFC00260620205E002813DB002559
:102A30000420205E002808DB029800F071FC6D1C69
:102A4000ADB20420205EA842F6DA761CB6B20620AB
:102A5000205EB042EBDA03B0F0BD000010B5644C6C
:102A6000A16A606A00F0D6F80A20FDF7E5FF00BF12
:102A7000A16A606A00F0D7F86420FDF7DDFFA16A63
:102A8000606A00F0C7F84120C000FDF7D5FFA169DA
:102A9000606900F0BFF8112000F020FC7820FDF7FD
:102AA000CBFF3A2000F01AFC552000F039FCB22090
:102AB00000F014FC0C2000F033FC0C2000F030FC83
:102AC000002000F02DFC332000F02AFC332000F021
:102AD00027FCB72000F002FC352000F021FCBB20D1
:102AE00000F0FCFB352000F01BFCC02000F0F6FBE2
:102AF0002C2000F015FCC22000F0F0FB012000F0BB
:102B00000FFCC32000F0EAFB112000F009FCC420F8
:102B100000F0E4FB202000F003FCD02000F0DEFBFE
:102B2000A42000F0FDFBA12000F0FAFBE02000F063
:102B3000D5FBD02000F0F4FB002000F0F1FB0620D4
:102B400000F0EEFB092000F0EBFB0B2000F0E8FBAF
:102B50002A2000F0E5FB3C2000F0E2FB552000F0CD
:102B6000DFFB4B2000F0DCFB082000F0D9FB162037
:102B700000F0D6FB142000F0D3FB192000F0D0FBAE
:102B8000202000F0CDFBE12000F0A8FBD02000F0D9
:102B9000C7FB002000F0C4FB062000F0C1FB0920A9
:102BA00000F0BEFB0B2000F0BBFB292000F0B8FBBF
:102BB000362000F0B5FB542000F0B2FB4B2000F0B3
:102BC000AFFB0D2000F0ACFB162000F0A9FB142099
:102BD00000F0A6FB212000F0A3FB202000F0A0FBCA
:102BE0007820FDF729FF292000F078FB10BD0000B8
:102BF0004800002038B5044605A109680091362038
:102C000000F06CFB6946085D00F08AFB38BD0000EF
:102C100060C0A00013B56846818801220098FEF7C5
:102C20007CF802B010BD13B5684681880022009878
:102C3000FEF773F802B010BDF8B504460D4617460E
:102C40001E462A2000F04AFB200A00F069FB2046BD
:102C500000F066FBE419641E2002000C00F060FB2B
:102C6000A0B200F05DFB2B2000F038FB280A00F03A
:102C700057FB284600F054FBAC19641E2002000CE0
:102C800000F04EFBA0B200F04BFB2C2000F026FB26
:102C9000F8BD0000F8B505460C463C48C1788C42AA
:102CA00003D0C4702046FFF7A5FF394F394E2800E6
:102CB000394D20D0E007394C0ED0009500231A463C
:102CC0003748396A00F07EF8009400231A463548E8
:102CD000796A00F077F8F8BD009500231A4632486B
:102CE000316A00F06FF8009400231A462F48716A89
:102CF00000F068F8F8BDE0072D4C1DD000950023CA
:102D00001A462C48796800F05DF8009400231A46B2
:102D10002948396900F056F8009500231A462748DB
:102D2000B96800F04FF82946F868FFF74BFE2946CE
:102D30007869FFF747FEF8BD009500231A461D4845
:102D4000716800F03FF8009400231A461A48316970
:102D500000F038F8009500231A461848B16800F0D2
:102D600031F82946F068FFF72DFE29467069FFF714
:102D700029FE0021B069FFF725FE002000900346E0
:102D800002460F48F16900F01DF8F8BD4800002028
:102D9000AC0000207C000020FFFF00007F05000049
:102DA00031480008B24B00082E3F00087C4600085E
:102DB000AF020000064D0008C34D00084C4D00084E
:102DC0006C3D0008FFB589B0129E07460C461546BB
:102DD00021880691618805910420205E401EC01064
:102DE000401CC100294104916846E388A288818A79
:102DF000008BFFF721FF0021089106226846A25EA2
:102E0000008C82423CDD002001900790042069463E
:102E1000205E898B88422ADD6946088C098AE84051
:102E200048436946898BE94040184003000C0390F1
:102E30006946888BE8404107490F8020C8400290CE
:102E4000694688890989385C084201D0019601E009
:102E50000C9801906946888800F062FA6946888B70
:102E6000401C07900420205E898B8842D4DC694690
:102E7000088C401C08900620205E098C8842C2DC29
:102E80000DB0F0BDFFB58BB00F4600240420385EB6
:102E9000400000F0FBFA0590002002900390388873
:102EA0006A461081788850810421795E91810020E2
:102EB000002909DD059A43001499D152401C80B2C3
:102EC0000421795E8142F5DC002007900620385EFF
:102ED000002874DD684600890A9068468089099058
:102EE0006846C08908900B98005D000605D4641CF4
:102EF000A4B20B98005D0006F9D502257D5F079806
:102F0000C5427BD40B98005D4006400EFDF767F983
:102F10000E99FDF727F9FDF795F900F06FFCFDF725
:102F200073F9C6B20798864203D20798401E80B252
:102F3000079007986946281848814989089B099A8B
:102F40000A98FFF779FE0798B04258D10020019007
:102F5000641CA4B206900420385E00285FDD0B9844
:102F6000005D010633D4FDF73AF90D99FDF7FAF843
:102F7000FDF768F900F042FCFDF746F9C0B2049095
:102F800006990498814222D10B98001940780106D5
:102F900016D4FDF724F90D99FDF7E4F8FDF752F981
:102FA00000F02CFC05460E460498FDF71FF92A4652
:102FB0003346FDF75BF903D1A41CA4B207E038E067
:102FC0000198002808D000200190641CA4B2019848
:102FD000002803D0159802E00120F5E7149806991F
:102FE0004A000599885200F09BF90698401C80B26F
:102FF00006900421795E06988142B0DC0FE000253E
:103000000420385E00280ADD05986900405A00F067
:1030100087F96D1CADB20420385EA842F4DC079835
:10302000401C80B207900621795E0798814200DD3E
:1030300059E70598FFF7EEFB0FB0F0BDF8B5254C4A
:10304000A078002802D0E169491CE1610926002529
:10305000F60600280CD0E069032809D10127277063
:10306000012202213046FDF758FEE770A570E561A8
:10307000217800290ED0012911D0022909D100227E
:1030800089033046FDF749FE002202213046FDF754
:1030900044FEF8BD61780120FFF7FCFDF8BDE07843
:1030A00000280ED06078FFF775FC61780020FFF7EC
:1030B000F1FD72B66278E178E06800F00DF862B672
:1030C000E57072B66278E178E06800F005F862B603
:1030D000F8BD000000000020F7B5D6B00646B421C8
:1030E00028A8FDF72DF800240025002027907F2038
:1030F000C00526902590734801467C314A68C06F10
:1031000089682392249122906F48014608318EC924
:103110001F971E931D921C91C26981692192209173
:10312000014620318EC91A97199318921791016B95
:103130001B911696014634318EC913971293119242
:103140001091816C406C159114906048C268816840
:103150000F920E91416900690D910C905B48C16915
:1031600080690B910A9059480146426A006A2031F1
:10317000099208908868C96807910690002017A9ED
:1031800082008A58B2420AD80446200003D0012C9B
:1031900003D0002507E0022505E0012503E0401CDF
:1031A000C0B20528ECD34A488078A84203D0012059
:1031B0002790474885700020002C07D916990A22CD
:1031C00051431691401CC0B2A042F7D30327032CF1
:1031D00008D30A211698FCF785FF16907F1CFFB2D2
:1031E000A742F6D900241CA8A1004158B14203D837
:1031F000641CE4B2062CF7D358981E21C00700289F
:103200001CD034482690259005226E4632877D27B3
:1032100077873820B0873420F0873C233386FF201F
:103220000F307086B18633857085C820B0853284B2
:103230007784EB20B084FF200530708324484378E6
:103240009C4205D10278002A02D1579A002A1DD04B
:10325000002202704470022C05D26A46108E2D3076
:103260001086918602E0782069468886660022AF43
:10327000B95B06A8FFF7A6FB17480090A00010A9AD
:103280000858BB5B00220CA9FFF79CFD279800287B
:1032900003D0002108A8FFF795FB58980EAAC10794
:1032A0000D48C90F039002920591049003200090ED
:1032B00001950021259B269A169800F01DF959B01A
:1032C000F0BD0000A44E0008244F0008243D000873
:1032D00048000020CDCC4C3FFFFF000070B50646F3
:1032E0000D4D0C4828600D4C216AE069FFF79BFCEE
:1032F000A1686068FFF797FC6E612169E068FFF7DD
:1033000092FC2169E068FFF785FC216AE069FFF71C
:1033100081FC70BD555555550004004848000020FB
:1033200010B40921C9068A6A01239B021A438A62E2
:103330008A695C0022438A61064A50618A6A980061
:1033400002438A628A6902438A61886918438861F4
:1033500010BC70470004004810B5FF200930FFF78B
:1033600029FA411C04D00349C0B24870FFF742FC5F
:1033700010BD00000000002082B0FDF7E3FCFEF766
:1033800011FDFEF771FCFEF75BFCFEF7B9FCFEF7E2
:10339000D9FCFEF7EFFC00221146501EFDF710FD90
:1033A0002F4800F027FBFDF7BFFC0146002000F08E
:1033B00095FA2C490120FFF783F800232A4A0421BB
:1033C0000120FEF7A9FF0023284A03210120FEF770
:1033D000A3FF3F213E20FFF7E1F9FFF7BDFFFFF715
:1033E0008BFA002423460A2221492046009400F04B
:1033F0008BFA00230A221F491846009400F084FA31
:1034000001230A221C490020009400F07DFAFF22CB
:103410000A23F53219490020009400F075FA0A21B8
:10342000174800F0DDFA00F0F1FA6420FDF704FB24
:10343000FDF77AFC13494118134881614078FFF782
:10344000D9FB01220920D103C006FDF766FCFDF778
:103450006BFC002301461A46184600F091FAF6E785
:10346000E40200207129000811370008893600089D
:10347000C525000849250008152600083D3000082C
:103480007D250008C027090000000020F0B50B30A2
:10349000C108C900144F0026144A0FE003688B428C
:1034A0000BD38B4205D95C1A4318456830C3083BDF
:1034B00000E04368136002C004E0021D10680028A9
:1034C000ECD13046002803D13868002801D0002014
:1034D000F0BD064A06481060064A121AD208D20009
:1034E00044C001203860D7E7B8010020B4010020B3
:1034F0005C03002058050020FFB5C7B0529E002095
:103500004490459057A001461EC93FAD1EC50069B5
:103510004390B42112A8FCF713FE012756481190DE
:10352000002456A0006810905548014654312EC919
:103530000691014609950893079264312EC90D95AD
:103540000C930B920A91816F406F0F910E9030880F
:103550006946088270884882B0888882F088C8826C
:103560005098052801D2509800E005205090002581
:1035700011994798FCF7B6FD0A21FCF7B3FD44A862
:1035800041550A211198FCF7ADFD11906D1CEDB26B
:10359000052DEDD300255098002857D931882046B5
:1035A00014300818694608825198854200D10027D6
:1035B000002F03D044A8405D002814D05498002167
:1035C0000190009144A8405D4A9B810006A84058A4
:1035D00004A9499AFFF756FC00276846808A241DF3
:1035E0000019C4B207E04898002804D16846808AD0
:1035F000241F0019C4B25198854222D15198022843
:103600001FD2204841680068039102907088694683
:10361000353048815598002802D070882A3048817A
:103620006946088A898A4018001D69460881133452
:10363000E4B25498002300901A4602A93FA8FFF76D
:10364000C1FB6D1CEDB250988542A7D3002F07D067
:103650005498009000231A4604A90698FFF7B2FB7D
:103660004BB0F0BD3FC07FE0FFF0FFF0FFF0FFF098
:10367000FFF0FFF07FE03FC010270000FF000000D8
:10368000A44E0008243D000870B51F4C0022A27013
:10369000217820460125407802291FD0002900D139
:1036A0002570032802D2401C607000E062706078D0
:1036B000FFF7A0FAFF2061780930FFF789F86078FA
:1036C000FFF768F961780020FFF7E4FA72B66278D4
:1036D0000121E068FFF700FD62B60FE02270FFF7FE
:1036E00059F9E570FF2021780130FFF771F8A570D6
:1036F00001220920D103C006FDF70FFBFDF714FBE3
:1037000002494018A06170BD00000020C0270900D8
:1037100010B5084C2078022803D100202070FDF756
:1037200071FB02212170C801FFF752F86078FFF7A2
:1037300031F910BD0000002010B47F23DB00C45815
:103740008C4207D1002A02D0C0184068106010BC1B
:1037500001207047083B1BB2082BF0DA10BC002098
:103760007047F3B587B000260396089804900120AF
:10377000059002A903A8FDF76BF908257F24E40052
:10378000079806590798001947680020019001AA78
:1037900031460798FFF7D0FF701C1CD0781C1AD058
:1037A000002231460898FFF7C7FF002813D101987F
:1037B000401C10D00898324641190023022006917F
:1037C000FDF7A4F906993A46091D00230220FDF7EA
:1037D0009DF90835ADB2083C24B2082CD0DA00229D
:1037E000134602200899FDF791F90798049002A961
:1037F00003A8FDF72DF909B0F0BD0000F0B513B432
:1038000006460199FCF798FE04460D4602460B4613
:1038100030460199FCF782FE064601981B4B0F4685
:1038200000280CDA00223046FCF720FD0CD90022DB
:10383000174B30463946FCF7BDFE1DD214E000227E
:103840003046FCF713FD08D20022124B20462946D1
:10385000FCF764FE04460D460EE000220C4B304699
:103860003946FCF7A7FE07D800220A4B2046294616
:10387000FCF7B0FD04460D46019A69004908D20FD5
:10388000D2072046114303B0F0BD00000000E0BFA6
:103890000000E03F0000F03F30B50C461546FFF752
:1038A0001BF8002815D00021A1618368002B12D0DD
:1038B0009869002808D0002D02D05869A84203D08A
:1038C0009B6998690028F6D19869A0619C610120E4
:1038D00030BD002030BD8460F9E7000070B50446BB
:1038E0000D462046FEF7F8FF00280AD11020FFF70A
:1038F000CDFD048045600021816002490A68C260F4
:10390000086070BD38000020FFB581B00A9D0E46EA
:1039100017461C20FFF7BAFD0446257000216160A0
:1039200021616661A7600498E060A16100222146E0
:103930000198FFF7B1FF002802D12046FEF76AFF89
:1039400005B0F0BD10B50B46FEF7C6FF01460800F6
:103950000FD08868002200280BD044699C4209D10E
:10396000002A02D08169916101E082698A60FEF7D4
:1039700051FF10BD024680690028EED110BD000045
:10398000FFB581B00E4615460198FEF7A5FF074624
:10399000380020D0BC68002C13D02069311A0F48A1
:1039A00081420BD27968711A814207D22078A842ED
:1039B00004D1324621460198FEF7D2FEA469002CBC
:1039C000EBD10498854206D96D1EEAB23146049BBC
:1039D0000198FFF7D5FF05B0F0BD0000FFFFFF7FA6
:1039E00008B50A460121009101460023E620FFF7B1
:1039F0008BFF08BD10B5044CA060FDF763FE616845
:103A0000E620FFF76BFF10BD3C00002001490120BC
:103A1000087070473C000020F8B505460E46144675
:103A20006A4631462846FFF787FE002804D00098F2
:103A3000A04203D10120F8BD601C08D02846FEF743
:103A40002DFF01218902884203D30020F8BD012007
:103A5000F8BD29180D46324600230220FDF756F81E
:103A6000291D224600230220FDF750F80120F8BD51
:103A70000000000000000000000000000000000046
:103A8000000000000000000003C3CE0003C3CF808D
:103A90000783C3C00783C0E00F03C0000FFFFFFC14
:103AA0001EFFFFFC3E03FC007E03FC00FE03FC0047
:103AB000FE03BC00EE07BC000E07BC000E073C3C3A
:103AC0000E0F3C3C0E1E3C3C0E1E3C3C0E3C3C7C17
:103AD0000E783FF80EF01FF00FE00000000000002D
:103AE00000000000000000000000000000000000D6
:103AF000000000000000000000000000000F0000B7
:103B0000000F0000000780001FFFFFC01FFFFFC065
:103B10001E0001C01E0001C01FFFFFC01FFFFFC02D
:103B20001E0001C01E0001C01FFFFFC01FFFFFC01D
:103B30001E1E00701E0F03F81E078FE01E03FF00FD
:103B40001E01F8001E3EFC001FFE3FC03FF007FCB8
:103B50003E0000F80000000000000000000000002F
:103B60000000000000000000000000000000000055
:103B70000000000000000000000000000000000045
:103B80000000000000000000000000000000000035
:103B90000000000000000000000000000000000025
:103BA00000000000000000000000000F0000000006
:103BB000010000000000000000000F0000000001F4
:103BC0008000C0000000C018000E0FFFE00000C021
:103BD00000F0FFFF803018001E0FFFE01FFFFFF016
:103BE0003CFFFF800C1800FFF801E01FFFFFF018FA
:103BF00000000701FFF0FFF807C0180000000000F8
:103C00000001E1FFF03C000F001818030100000064
:103C1000004018303F803E001BFFFFF3C3FFFFC092
:103C20000830303B80FFC01BFFFFF0F3FFFFC07C7C
:103C300030307B83F3F01818030020180001F8607F
:103C400031739FC0FC181FFF0000380007C1C03F40
:103C5000FFFE001C181FFF000030000303301FFF91
:103C6000F0000018180300207FFF80003000038F51
:103C7000FFF018000000307FFF87FFFFFF038FFF7A
:103C8000F019FFFFC060000187FFFFFF03F83C0051
:103C900039FFFFC06000018001B600FFF83C003032
:103CA00038038060000100073300FF803C00300EC5
:103CB0000E00C00003001C31E003803C007003F8DC
:103CC00000C0000300F8307C03BFFFFC6007F80170
:103CD000C007FF07E0301F03BFFFFCEFFF1FF080AE
:103CE00007FC030030030380000047C000F0000021
:103CF0000000003000000000000000000000000094
:103D000000000000000000000000000000000000B3
:103D100000000000000000000000000000000000A3
:103D200000000000000000000C000A001E0050000F
:103D3000480040006400C1001E001E006400C10075
:103D400078001E001E005000090140000000B8006D
:103D500040013C0000000000400140010000000064
:103D600040012800640005001E001E000000000045
:103D70000000000000000000000000000000000043
:103D80000000000000000000000000000000000033
:103D90000000000000000000000000000000000023
:103DA0000000000000000000000000000000000013
:103DB0000000000000000000000000000100000002
:103DC0000000000000000007800000018000C0002B
:103DD0000000C01800000780000000C000F0FFFFD6
:103DE00080301800000780001FFFFFF03CFFFF80BD
:103DF0000C1800000780001FFFFFF01800000701EB
:103E0000FFF03FFFFFF01800000000000001E1FF9D
:103E1000F03FFFFFF01818030100000000401830C9
:103E20003C0780F01BFFFFF3C3FFFFC00830303CAE
:103E30000780F01BFFFFF0F3FFFFC07C30303C0732
:103E400080F01818030020180001F860313C07804A
:103E5000F0181FFF0000380007C1C03F3C0780F08A
:103E6000181FFF000030000303301F3FFFFFF01852
:103E7000180300207FFF800030003FFFFFF0180094
:103E80000000307FFF87FFFFFF3C0780F019FFFF36
:103E9000C060000187FFFFFF0007800039FFFFC0FF
:103EA0006000018001B600000780003038038060A8
:103EB00000010007330000078000300E0E00C00034
:103EC00003001C31E0000780007003F800C000030D
:103ED00000F8307C000780006007F801C007FF078A
:103EE000E0301F00078000EFFF1FF08007FC030099
:103EF00030030007800047C000F0000000000030E1
:103F000000000000000000000000000000000000B1
:103F100000000000000000000000000000000000A1
:103F20000000000000000000000000000000000091
:103F3000001FF00000000000000000000000000072
:103F40000000000000000000000000000000003F32
:103F5000000000FFFE000000000000000000000064
:103F60000000000000000000000000000000000051
:103F7000003F000003FFFF80000000000000000081
:103F80000000000000000000000000000000000031
:103F90000000003F000007F00FE0000000000000FC
:103FA0000000000000000000000000000000000011
:103FB00000000000003F00000FC003F000000001FF
:103FC000C00000000000000000000000000400002D
:103FD000000000000000003F0001CF0001F00000E1
:103FE0000000F80000000000000000000000000ECB
:103FF000001C000000000000003F003FFE0000F831
:1040000000000000FE0000000000000000000000B2
:10401000001E003C000000000000003F01FFFE0009
:10402000007FC00000007F0001F8000000000000D9
:104030000000001E3FFE0000000FFFFF803F03FF57
:10404000FC00007FF00000003F001FF80000FFFFB1
:10405000FFFFF000001FFFFFFF8001FFFFFFC03FD9
:1040600007F00000003FFC0000000E007C7800001C
:10407000FFFFFFFFF8003FFF81E7FF8001FFFFFF29
:10408000C03F0FC00000003FFE0000000003E0380A
:104090000000FFE3FFFFF8003FEF81C0000001FFD9
:1040A0001C03C03F1F0000000001FE000000000FC5
:1040B000C03800000001F00010000007871E00005B
:1040C00000E00C00003F1E00000000003F00000068
:1040D000000F803800000000F00000000003063CE4
:1040E000000000001C00003F1C00000000003F001A
:1040F0000000000F803000000000F000000000C24F
:104100000078000000001E00003F1C0000000000BE
:104110001E0000100001C07000000001F800000047
:1041200000E780F800000003FFFFF83F1C000000DC
:1041300000003E00003FC000E07000007C3FFFFF39
:10414000800000E381FFFC0001FFFFFFFC3F0E0049
:10415000000000003C00003FE000F0F00000FFFF26
:10416000FFFFC00000E387FFF80007FFFFFFFC3FF1
:104170000F00003FF0007800003FE00079F0000001
:10418000FFFFFDFFC00000E39FFC000007FFFFFFF3
:10419000F83F07C001F00001F000003FF0007FE0B1
:1041A00000007FFFF000000000E3833E000003F802
:1041B0003F00003F0FE0070000007800001FF00004
:1041C0003FE000000001F000000000E3803F8000BD
:1041D00001C03F00003F3F000E0000003E00000F06
:1041E000F0003FE000000000F000000000E3801F4E
:1041F000C00000003F80003F7C001C0000001E004B
:10420000000FE0003FE000000000F000000000436D
:1042100080000000000073C0003F78001E00000016
:104220003F00000300003FF000000001F00000002C
:104230000002000000000000E1E0003FF0000F80FD
:1042400000007F00000000007FF800000001F00087
:104250000C000003FFFF80000001E0F0003FF800C9
:1042600003FE0003FF00000001F3FFFF0000000356
:10427000F0003C00001FFFFFC0000003C078003FBB
:10428000FC00007FFFFFFE00000003FFFFFFE000D7
:104290004007FFFFFC00001FFFF3C0000007803C49
:1042A000003F7E000001FFFFF800000003FFFFFF5A
:1042B000FC00F03FFFFFFC00001C30E18000001F0D
:1042C000003F003F3FC0000000000000000007DF8B
:1042D000F1FFFE01FFFFFFFFFC00001C30E180004A
:1042E0001FFE001FE03F1FFF000000000000000055
:1042F0001F0FC0FFFF01FFFFFFFFFC00001FFFFFBC
:10430000C0203FFC000FFE3F07FFFFFFF000000052
:1043100000007E07803FFF01FFFFFFFFFC001FFF43
:10432000FFFFFFF01FF0000FFFFF00FFFFFFFF8008
:1043300000000003F800001FFF00FFFC007FFC00EE
:104340001FFFFFFFFFE01FC00007FFFF000FFFFF81
:10435000FFF000000007F000000FFE007FC0000724
:10436000F8001FFFFF3FFFE01F000003FFFF0000FA
:10437000000001FC0000000FE0000001FC00000054
:10438000000000001FF80000FFE008000001FFBF70
:1043900000000000000F0000000FC000000000003F
:1043A0000000000000001E0000000FC00000000020
:1043B000003F0000000000010000000F800000002E
:1043C00000000000000000000000000000000000ED
:1043D0000000003F00000000000000000007000097
:1043E00000000000000000000000000000000000CD
:1043F00000000000003F000000000000000000007E
:1044000000000000000000000000000000000000AC
:10441000000000000000003F000000180000000045
:10442000000000000000000000000000000000008C
:104430000000000000000000003F0000000E00002F
:10444000000000000000000000000000000000006C
:1044500000000000000000000000003F0000000716
:10446000FFFFFC0000000000000000000000000052
:10447000000000000000000000000000003F0000FD
:104480000000FFFFFE000000000000000000000030
:104490000000000000000000000000000000003FDD
:1044A000000000000003FF000000000C03000000FB
:1044B0000000000000000FE07800000001F8F000AC
:1044C000003F0000000000001F000000003E0780C9
:1044D00000000000000000003E3C78000000071CC7
:1044E000F000003F00000000007F03FC0000003CE3
:1044F0000F8000000000000000003E1EF8000000D9
:104500000E00E000003F0000000001FFE0FF00009F
:10451000003C0F1FF8EFDE0E3FE3DF803C1CF3870B
:1045200087380F01E388183F0000000003FFF83FC1
:104530008000007C3F1BF9FFEF1EF3F3FF807EF04D
:10454000F3879C3807C1C71C3C3F0000000003F004
:10455000FC0FC000007FFF07F9E3EF3DE1F3C780E8
:104560007C71F7873C7001F3FC1E383F00000000AF
:1045700003F03807C000007F9E7E79C3C7F9E0F7DB
:104580008780F839E78F3C0000FBFC1E703F00007D
:10459000000001F00007E00000F83E787BC3C7F19F
:1045A000F0F78780F879E78F380020739E0EE03FA0
:1045B00000000000007C0007C00000F03CF8F3C3DE
:1045C00087C1F9C78F00F8F3E7FF3C6070E78E0FF3
:1045D000C03F00000000001E0007C00000F03C7F4C
:1045E000F38383807F070600FFC1C3870FC01FC707
:1045F000070F803F000000000003000F8000000054
:1046000000000000000000000000000000000000AA
:104610000000000F003F000000000001C03E00004D
:10462000000000000000000000000000000000008A
:1046300000000000001C003F000000000000FFFC24
:10464000000000000000000000000000000000006A
:1046500000000000000003F0003F00000000000028
:104660007FF80000000000000000000000000000D3
:1046700000000000000000000000003F00000000FB
:1046800001F00000F0780FFFFFE003C00000000021
:1046900000000003E0001FFF7B8FFFFFE7FFFFF03C
:1046A0000000000000003FFFFF1FFF7B8007800726
:1046B000FFFFF00000000000003FFFFF1FFF7B8FA7
:1046C000FFFF87FFFFF00000000000003FFFFF003A
:1046D000F07BCFFFFFC007E0000000000000003FBC
:1046E000FFFF3FFFFFCFF7BFC7FFFFE0000047FC22
:1046F0007FFE0F80003FFFFF8F0783C7FFFFF000A3
:1047000000E7FE7FFE1F0F003FFFFF8FFFBFC7FFC9
:10471000FFF07C0EE7FE7FFE1F0F0003C07C000051
:104720003807FFFFE0FF1F400E03C03E0F001FFFD2
:104730003C0FFBFFC003E003FF9F800E03C03FFF61
:10474000FF1FFF3CDFFBFFC7FFFFF38187C3DC03D5
:10475000C03FFFFF1FFF3DDFEBBDC7FFFFF70007B7
:10476000E7FC03C03FFFFF1F003FDFFBFFC7FFFF6A
:10477000F70007E7FC7FFE1FFFFF1FF03FC7FBFFAF
:10478000C1FC0007000776787FFE000F001FFF3F87
:10479000CFFBFFC7F83FC700077E3803C0000F00FC
:1047A0001FFF7F0CFBFFCFF07FC700077E3803C0E1
:1047B0007FFFFF9FFF7E07FBFFCFF0FFC7810776DC
:1047C0007C03C07FFFFF80F07F1FF83C0FF07FC3AA
:1047D000C387E77C03C07FFFFF1FFF7F1F7BFFCDE9
:1047E000F07E01FF87E7FC7FFE001F801FFF6F1B2D
:1047F000FBFFC1F03F00FE07E3EEFFFF000F001FCD
:10480000FF0F0FFBFFC1FE1F800000C18E7FFE0067
:104810000F0000F00F0FFFFFE1FE0FC000000000CF
:104820000000000F0000F00F8C7FFFC0FE07E000CB
:104830000000003F800000000000000000000000B9
:1048400000000000000000030000FFF00000000076
:104850000000000000000000000000000000030055
:1048600001E07800000000000000000000000000EF
:104870000000000000030003801C00000300000093
:104880000000000000004010000000000301FF00D5
:104890000E000001E00000000000000000E0380011
:1048A0000000000307FE000FE00000F007E000003A
:1048B0001FFE0000FFFFF001FFFF031F80000FF845
:1048C0000000701FE001FFFFFF803FFFFFF803FFC4
:1048D000FF033C000007FC000000F0E000F87DFF53
:1048E000803C70C80003C10103380000003C000098
:1048F00001C0400000380000003118000001000332
:10490000300000001C000001E0C000003800000280
:1049100020380000038003300000001C001E0060EF
:10492000C000607FFC000330FFC000FFFFE3180001
:10493000000038003F8031C000FFFFFE000331FF60
:10494000C007FFFFE31C00FC0070001F803FC00099
:10495000FFFC1C000333F80007FFCFC31E038000D9
:1049600070001FC01F80000038000003301E0003CD
:1049700083C0037807000038000F801F80000038D4
:10498000000003301E000007C003E00700001C0009
:1049900007001F80000038000000300000000660A3
:1049A00003E003C0007C0000083FE0000038008006
:1049B000007FFE00000C3003F000FFFFFC00001F32
:1049C000FFF800007FF78000FFFF0000381C03782D
:1049D0000007FFF000001FFFFF00C1FFFFC000CC79
:1049E000620000701E033F00000000000079F1FF2C
:1049F000C1FFFFFFC000CEE6001FE00FE31FFFFF77
:104A000000000001E0C0FFC1FFFFFFC03BFFFFFC53
:104A10001FC007FF01FFFFFC000007C0007FC0FFB1
:104A2000003F803FFFFFFC1F0007FF0000007F00EA
:104A3000000F80000F80000000003FC003FC080052
:104A400003FB0000000180000F00000000000000D8
:104A50000010000038000000030000000000000EFD
:104A60000000000000000000000000000000000343
:104A70000000000000000000000000000000000036
:104A8000000000000000030000180000000000000B
:104A90000000000000000000000000000003000013
:104AA0000FFFF80000000000000000000000000000
:104AB0000000000003000003FFFC000000000000F5
:104AC00000000000000000000000000300000000E3
:104AD0001C0000038700000000000038CE00000624
:104AE000CE00030000000FC3E000070E3C000002F0
:104AF000000038CC80000C0C00030000003FF0F0F8
:104B000000070E7F3FB9DFCFF0799DCE660F1CCC3A
:104B1000630000003C78780007FE7F739BB0EE7066
:104B2000719D8EEC039F0CC30000003C003C000F05
:104B30001CE7739F38EC6071999CC001DB8CC3004B
:104B400000000F0038000E1CFE639E3F9CE0F3B98E
:104B5000FCEC31B98F0300000001807800000000F8
:104B600000000000000000000000000E0300000034
:104B700000C0E00000000000000000000000000095
:104B800000001C03000000007FC0000000000000C7
:104B90000000000000000000007003000000001F83
:104BA0008000000000000000000000000000000085
:104BB0000003000000003C0001E1C0FFFFF007809F
:104BC00000001F000000007C001FFDDCFFFFF3FF62
:104BD000FF80001F00000007FFFF9FFDFC3FFFC399
:104BE000FFFF80001F00000007FFFF81E1EC7FFF57
:104BF000E3FFFF80001F00000007FFFFBFFFFCFF77
:104C0000FFE007C000001F67F9FFE1F0003FFFFC75
:104C1000F0F0E3FFFF80001F77FDFFF1E3C03FFFEF
:104C2000FCFFFFE3FFFF83E1FF77FC1E03C3C00728
:104C3000C1E03F3FC007800FF9FF801C0E03C3C0D7
:104C40001FFCE0FF7FE7FFFF9E38FFC3F80E03FF66
:104C5000FF9FFCECEE7F77FFFF9C007FE7F80E03E1
:104C6000FFFF9F00FCFF7FF7FFFF98007F77F9FFB2
:104C7000E3FFFF9EE0FC7F7FF1F80018007F767174
:104C8000FFE003C01FFCFCFF7FE7F0FF18007F364A
:104C9000700E07FFFF9FFDF89F7FE7F1FF18007F71
:104CA00076780E07FFFF81E1F8FF0F07F1FF1E384E
:104CB0007F77F80E07FFFF9FFDF8F77FF6F0F80FFC
:104CC000F87F77F9FFF007C01FFC78BF7FE0F07C2A
:104CD00007F07F63DDFFF003C01FFC38FFFFF0FE2D
:104CE0003E00001F0000000003C001E038E7FFF0B5
:104CF000FE1F80001F0000000001C000E03800001F
:104D0000007C0000001FFF8E0183C003FF40C7032B
:104D10008E60020740450688300207404584803097
:104D2000020740C48C802007F77F84D88060021F70
:104D300040045080C0000F4004708380000F400C7E
:104D4000208E10C61F4008008FF0C3F7000000023D
:104D50000000010000000400000100000004000049
:104D600001000000080000010000001000003D00EC
:104D7000000010000043830020204E701D810FE0D2
:104D800020538C0381106040610443811020404116
:104D9000047F8110208041040181102080410401A2
:104DA000C31861004104017D0FA20041040100000D
:104DB00020000000010018C00000000100070000F2
:104DC000000001007F000000000000000000000063
:104DD0000000FF8001800000000000000000001FB4
:104DE000C1E001E06000000030C007FC007F80F8F7
:104DF00000E3F03FFF83FFFE1FFC007000FC000E8D
:104E000020006183B0C00CC00060000C070E600081
:104E10006000D9F803FF00307E1C0783603FFF80ED
:104E20005BF81FFF0031F81803C1C01FE00058E015
:104E30001DE000C1C00C0381E000600058E001F0FB
:104E400000C0FFFC003FF800FCC03FF007380078CE
:104E50000FF8007FFF3FFFC035B03E1E003FFF80D0
:104E600003CE3F3FFFC3FFFE3C1F8003FFE00380F4
:104E70001E000383F87E000F800000000300000086
:104E800000000000000000003800000000000000EA
:104E90000000000000000FFC000000000000000007
:104EA0001D8000000007800CC0000003980F332015
:104EB000000001F3C01F9DFDFDF3536B3B5B000041
:104EC00001C8E01FB5A7EF63D3EC0FCE000000E0F0
:104ED000C0113F267B63DFFE7A4C0000003F80005C
:104EE00000000000000000180000001F000000008B
:104EF0000000000000200000185300084453000880
:104F000078530008C45300081054000842540008A5
:104F10008E540008D8540008F75400083F55000884
:104F20004422E0E6C6FCA17865482418AC0D0000D8
:104F30004C1D0000EC2C0000983A0000A861000015
:104F4000FFFFFFFF10270000E803000064000000DF
:104F50000A00000000000000703A0008E83A00086B
:104F6000603B00086C3D0008944F00085651000853
:104F70004422E0E6C6FCA17865482418703A00088F
:104F8000E83A0008603B00086C3D0008944F0008B8
:104F90005651000800000000000000000000000062
:104FA0000000000000000000000000000000000001
:104FB00000000000000000000000000000000000F1
:104FC00000000000000000000000000000000000E1
:104FD00000000000000000000000000000000000D1
:104FE00000000000000000000000000000000000C1
:104FF000000000000060C0000000C01800FFFFFFBC
:10500000FC1FFFFFE0F0FFFF80301800FFFFFFFCF8
:10501000000300003CFFFF800C1800003C780000FB
:105020000300001800000701FFF01E3C78E07FFF3E
:10503000FFF000000001E1FFF01FBC7BF000030067
:10504000010000000040183003BC7F800003000313
:10505000C3FFFFC0083030003C78000FFFFFC0F3F3
:10506000FFFFC07C30301FFFFFFC0C0300C0201886
:105070000001F860311FFFFFFC0C0300C000380086
:1050800007C1C03F1E0000000FFFFFC0003000033B
:1050900003301F1C0000000C0300C0207FFF8000B5
:1050A00030003C0000000C0300C0307FFF87FFFF92
:1050B000FF3C0000000FFFFFC060000187FFFFFF03
:1050C0003C0000000C0300C06000018001B6003C01
:1050D00000000000030000600001000733007C00B6
:1050E00000001FFFFFE0C00003001C31E07800005B
:1050F0000000030000C0000300F8307CF80000004E
:1051000000030001C007FF07E0301FF00000007F30
:10511000FFFFF08007FC0300300360000000000088
:10512000000000000000003000000000000000004F
:10513000000000000000000000000000000000006F
:10514000000000000000000000000000000000005F
:10515000000000000000000000000000000000004F
:10516000000000000000000000000000000000003F
:10517000000000000000000000000000000000002F
:10518000000000000000000000000000000000001F
:10519000000000000000000000000000000000000F
:1051A00000000000000001000000000000000000FE
:1051B000000000E000018000C0000000C018003FB7
:1051C000FFFFF00000C000F0FFFF80301800000774
:1051D00080001FFFFFF03CFFFF800C1800000780DD
:1051E000001FFFFFF01800000701FFF0FFFFFFFCAA
:1051F0001800000000000001E1FFF0000780001827
:1052000018030100000000401830000780001BFF59
:10521000FFF3C3FFFFC00830301FFFFFE01BFFFF9D
:10522000F0F3FFFFC07C30301E0781E01818030048
:1052300020180001F860311E0781E0181FFF0000F0
:10524000380007C1C03F1FFFFFE0181FFF000030FC
:10525000000303301F1E0781E018180300207FFFA2
:10526000800030001E0781E018000000307FFF87BB
:10527000FFFFFF1FFFFFE019FFFFC060000187FF76
:10528000FFFF1E0781E039FFFFC06000018001B60B
:105290000000078000303803806000010007330001
:1052A0003FFFFFF0300E0E00C00003001C31E00095
:1052B0000780007003F800C0000300F8307C00078E
:1052C00080006007F801C007FF07E0301FFFFFFF05
:1052D000FCEFFF1FF08007FC03003003000000001C
:1052E00047C000F000000000003000000000000097
:1052F00000000000000000000000000000000000AE
:10530000000000000000000000000000000000009D
:105310000000000000000000800444810345820278
:10532000468D021236468E021137468F02103846DD
:10533000B102113746B202123646B30246BE0345E9
:10534000BF0444FF8004308103318202328B033278
:105350008C04328D22328E23328F2432B12333B229
:105360002234B30444B40346B50246B60247BD0234
:1053700046BE0346BF0444FF8004448103458202C5
:10538000468B03468C04468D36468E37468F38460C
:105390009837469936469A04469B03469C0246A592
:1053A0000245A60244A70212A80211A90210B102E6
:1053B00011B20212B30244B40245B50246BE03451F
:1053C000BF0444FF8004448103458202468B0346A8
:1053D0008C04468D36468E37468F38469837469928
:1053E00036469A04469B03469C0246A50346A604FD
:1053F00046A73646A83746A93846B13746B236469C
:10540000B30446B40346B50246BE0345BF0444FF99
:1054100080040E3A4481030F39458202103846A5B4
:1054200002113746A602123646A70246B20346B319
:105430000446B43646B53746B63846BE3945BF3A57
:1054400044FF8004448103458202468B02458C025E
:10545000448D02128E02118F0210980211990212CD
:105460009A02449B02459C0246A50346A60446A711
:105470003646A83746A93846B13746B23646B30451
:1054800046B40346B50246BE0345BF0444FF80044C
:10549000448103458202468B02458C02448D0212F0
:1054A0008E02118F02109802119902129A02449BE7
:1054B00002459C0246A702123646A802113746A9A9
:1054C00002103846B102113746B202123646B30214
:1054D00046BE0345BF0444FF800444810345820265
:1054E000468B03468C04468D36468E37468F3846AB
:1054F000BE3945BF3A44FF800444810345820246D9
:105500008D021236468E021137468F0210384698A9
:105510000211374699021236469A0246A7021236FF
:1055200046A802113746A902103846B10211374683
:10553000B202123646B30246BE0345BF0444FF80A2
:1055400004448103458202468D021236468E0211C2
:1055500037468F02103846980211374699021236A4
:10556000469A0246A50346A60446A73646A83746ED
:10557000A93846B13746B23646B30446B40346B5F9
:105580000246BE0345BF0444FF00000000010203C1
:10559000040102030406070809000000BC550008C6
:1055A00000000020BC01000046060008B4560008B8
:1055B000BC0100209C0700000A23000821024501CD
:1055C0001946320312485208124832101214634826
:1055D0004012485A0408496F1248228022DC1B20DE
:1055E000E4041AEC041AF4041AFC041304011B204A
:1055F0000C041A14041A2C041A34041A1C041A2455
:10560000041A3C041A44041A4C041A54041A5C0484
:105610001A64041A6C041A74041A8C041A94041A76
:105620007C041A8404121E125012401246120A12EE
:105630001E1A350612FA121B12373211123014409C
:1056400001011A69A1126A32163AB610211AB80875
:10565000123C126412C11A78341A620A12781A279C
:10566000063AC810121B123C140A0137125812A332
:1056700012981A1752127F1A38601A5D04296012A4
:10568000607AE3601AF0E97A41602B020110211A76
:1056900004081A3C020B140E01601A648A1A27448B
:1056A00012AA1A833C1193127AC00901020304065C
:0456B00007080900DE
:04000005080000B53A
:00000001FF
